:020000040800F2
:10000000C80400200101000821100008850E000826
:100010001D1000086D010008B11300080000000069
:100020000000000000000000000000008110000837
:10003000710100080000000051100008B510000810
:100040001B0100081B0100081B0100081B01000820
:100050001B0100081B0100081B0100081B01000810
:100060001B0100081B0100081B0100081B01000800
:100070001B0100081B0100081B0100081B010008F0
:100080001B0100081B0100081B0100081B010008E0
:100090001B0100081B0100081B0100081B010008D0
:1000A0001B0100081B0100081B0100081B010008C0
:1000B0001B0100081B0100081B0100081B010008B0
:1000C0001B0100081B0100081B0100081B010008A0
:1000D0001B0100081B0100081B0100081B01000890
:1000E0001B0100081B0100081B010008DFF80CD0F1
:1000F00000F02AF80048004799150008C8040020BD
:100100000648804706480047FEE7FEE7FEE7FEE7B1
:10011000FEE7FEE7FEE7FEE7FEE7FEE71111000857
:10012000ED000008D2B201E000F8012B491EFBD21D
:1001300070470022F6E710B513460A4604461946F2
:10014000FFF7F0FF204610BD064C074D06E0E068C3
:1001500040F0010394E8070098471034AC42F6D30E
:10016000FFF7C8FF1016000830160008FEE7000071
:10017000704700002DE9F04F84B00E680290002E09
:1001800000F0018140F2004741F2004202984FF630
:10019000FF7EC4F20107C4F20102042300240125FA
:1001A000C1F2100E4FF0000A4FF00009904208BF54
:1001B000032300930AE000BF01250E680AF1010A3B
:1001C00036FA0AF204F1040400F0DD8005FA0AFBB5
:1001D00016EA0B08F1D04A68724511DC122A54D88D
:1001E0000298DFE802F0350A434753535353535301
:1001F000535353535353534A4E00D1F80C9045E098
:100200004FF6FF73C1F221039A4210DC0023C1F2C2
:10021000110302989A421BD00023C1F212039A42A2
:1002200016D00023C1F221039A4211D02EE0002300
:10023000C1F2220302989A420AD00023C1F231038C
:100240009A4205D00023C1F232039A421ED100BF68
:100250008A6842B1012A14BFC0F814B0C0F810B0C7
:100260004FF0080912E04FF004090FE0CA6802F1EC
:1002700008090BE04FF0000908E0CA6802F1040920
:1002800004E0CA6802F10C0900E002982246034625
:10029000B8F5807F24BF203A04331D684FF00F0C5F
:1002A0000CFA02F6B54309FA02F22A431A60CA7937
:1002B000D2067FF581AF41F21803CDF80490C4F265
:1002C00002031A68F34642F001021A601A684FEA04
:1002D0009A0E02F001020392039AA7F57E72B946C4
:1002E00052F82E3004F00C0740F600060CFA07F521
:1002F000C4F20106B04223EA050C10D040F60043D8
:10030000C4F2010398420CD041F20003C4F201038D
:100310009842009B4FF0010508BF022303E0002331
:1003200000E001230125BB4043EA0C0342F82E30D4
:100330004E684F46F203D9F8002054BF22EA080263
:1003400042EA0802DDF804903A607A68B30354BFC9
:1003500022EA080242EA08027A60F302BA6854BF4D
:1003600022EA080242EA0802B30240F20C43BA60F1
:10037000C4F20103DE461A6854BF22EA080242EAC8
:1003800008021A6019E704B0BDE8F08F80680840E1
:1003900018BF012070470000C26802EA01039143C0
:1003A00041EA034101617047002A08BF0904016165
:1003B0007047000040F2C400C2F2000000687047BD
:1003C00040F2080040F2C401C2F20000C2F2000193
:1003D00000780A68104408607047000080B542F257
:1003E0000000C4F20200016841F010010160032026
:1003F00000F062F8002000F005F800F02BF8002073
:1004000080BD0000B0B540F20802C2F2000240F226
:1004100000011278C2F200014FF47A730968B3FB4D
:10042000F2F20446B1FBF2F1084600F0BBFA0F2CE1
:100430004FF001050CD858B94FF0FF30214600228B
:10044000002500F029F840F20C00C2F20000046020
:100450002846B0BD82B041F21800C4F20200016823
:10046000022241F001010160016801F001010191E6
:100470000199416841F080514160406800F080502E
:10048000009000980420C4F20100016862F31A6130
:10049000016002B07047000070B514460D46064674
:1004A00000F088FF2946224600F0BCFD0146304698
:1004B00000F088FF70BD000080B500F095FF80BDA2
:1004C0002DE9F04381B0002800F0878042F2000857
:1004D000C4F202080446D8F800000D4600F00700F8
:1004E00088420CD2D8F8000020F007002843C8F852
:1004F0000000D8F8000000F00700A8426DD1206885
:1005000041F204098107C4F2020917D5410705D554
:10051000D9F8001041F4E061C9F80010010705D5D1
:10052000D9F8001041F46051C9F80010D9F8001052
:10053000A26821F0F0011143C9F80010C00745D1AD
:10054000D8F8000000F00700A8420CD9D8F8000045
:1005500020F007002843C8F80000D8F8000000F099
:100560000700A84239D12068410707D5D9F8001003
:10057000E26821F4E0611143C9F80010000708D5D2
:10058000D9F80000216920F4605040EAC100C9F8A0
:10059000000000F04DF8D9F8001041F2FE52C1F30E
:1005A0000311C0F60002515C40F2000220FA01F192
:1005B00040F20C00C2F200000068C2F200021160BA
:1005C000FFF720FF002001B0BDE8F083606801283C
:1005D00007D159F8041C89030CD4012001B0BDE8EF
:1005E000F08359F8041C022802D18901F5D501E0F5
:1005F0008907F2D5D9F8001021F003010843C9F8A2
:100600000000FFF7D7FE064641F28837D9F8000010
:10061000616800F00C00B0EB810F91D0FFF7CAFECB
:10062000801BB842F2D9032001B0BDE8F08300007E
:1006300041F2040CC4F2020CDCF8003003F00C00B0
:10064000082841F20020C0F27A0018BF7047C3F3B7
:1006500083420AA18A5CD90305D440F60010C0F297
:100660003D0050437047DCF8001008A3C1F340413F
:10067000595C5043B0FBF1F0704700BF0203040522
:10068000060708090A0B0C0D0E0F101001020000DE
:100690002DE9F04182B0002800F0C48004460078C3
:1006A00041F20006C007C4F2020643D0706800F0B1
:1006B0000C00042817D0706800F00C00082802D144
:1006C0007068C0030FD465689DB1B5F5803F06D052
:1006D0003068B5F5A02F0DD140F48020306030682F
:1006E00040F480300CE03068800323D5606808BB9C
:1006F00098E0306820F480303060306820F480204A
:100700003060FFF757FE002D054610D0306880039B
:1007100010D4FFF74FFE401B6428F7D908E100BF53
:10072000FFF748FE401B64284FF0030077D830687D
:100730008003F5D42078800718D5706810F00C0F6E
:1007400007D0706800F00C00082826D17068C0033C
:1007500023D43068800702D52069012862D130682F
:10076000616920F0F80040EAC1003060207800079D
:100770003DD5A06938B30020C4F242200121C0F861
:100780008014FFF717FE0546706A80072DD4FFF727
:1007900011FE401B0228F7D9CAE02069002840F268
:1007A0000000C4F2422000F09A8001210160FFF7AE
:1007B00001FE054630688007D1D4FFF7FBFD401BE2
:1007C0000228F7D9B4E00020C4F242200021C0F88A
:1007D0008014FFF7EFFD0546706A800707D5FFF725
:1007E000E9FD401B0228F7D9A2E000F033FC207895
:1007F00040071BD4E5698DB1706800F00C00082833
:100800004CD1012D0ED07068216A00F480328A42EA
:1008100008D1616A00F47010884203D1002002B050
:10082000BDE8F081012002B0BDE8F081F069C000B0
:100830000BD4F0694FF0010840F08050F061F0698E
:1008400000F080500190019801E04FF0000847F25D
:100850000007C4F200073868C00510D4386840F4B7
:1008600080703860FFF7A6FD054600BF3868C005F8
:1008700005D4FFF79FFD401B6428F7D958E0E568D1
:10088000002D3DD0012D05D0306A052D39D140F025
:1008900004003062306A40F0010038E00027C4F202
:1008A000422700203866FFF785FD022D05460BD153
:1008B0003068800154D5FFF77DFD401B02284FF0C2
:1008C0000300F5D9ABE700BF30688001A6D5FFF77C
:1008D00071FD401B02284FF00300F5D99FE700216E
:1008E0000160FFF767FD0546306880077FF53EAF82
:1008F000FFF760FD401B02284FF00300F4D98EE79C
:10090000306A20F001003062306A20F0040030626A
:10091000FFF750FD002D054641F2883714D000BF87
:10092000306A800713D4FFF745FD401BB842F7D962
:10093000032002B0BDE8F081FFF73CFD401BB84248
:100940004FF003003FF66BAF306A8007F4D4B8F184
:10095000000F3FF44FAFF06920F08050F06149E79D
:10096000206AB0F5803F05D17168A26821F400319A
:10097000114371607168626A21F474111043084375
:10098000706001203866FFF715FD0446306880016D
:100990003FF544AFFFF70EFD001B02284FF00300A8
:1009A000F4D93CE780B500F06DFB80BDB0B590F8A0
:1009B0003C20012A04BF0220B0BD01F108053CCD56
:1009C000D1E900CE23F47C5322F470521A432EF462
:1009D000F0431A432CF4E0431A4324F4C0431A436F
:1009E0002A43C96922F480420368114359640021F3
:1009F00080F83C100846B0BD10B590F83C20012AA4
:100A00004FF0020231D0012380F83C3080F83D20C5
:100A10000268D2F804E0D2F808C00C682EF0700327
:100A2000234340F2FF74C4F20004A242536005DC89
:100A3000B2F1804F0ED040F2004307E042F600438F
:100A4000C4F201039A4205D040F60003C4F2000349
:100A50009A4204D149682CF0800319439160012126
:100A6000002280F83D1080F83C20104610BD0000A8
:100A7000002804BF0120704710B5044690F83D00DF
:100A800028B9002084F83C00204600F01FF802201E
:100A900084F83D002068211D00F03CFB012084F813
:100AA000460084F83E0084F83F0084F8400084F853
:100AB000410084F8420084F8430084F8440084F83C
:100AC000450084F83D00002010BD000082B00068A1
:100AD000B0F1804F14D042F60041C4F201018842C7
:100AE0001BD141F21800C4F20200016841F4006118
:100AF0000160006800F400600190019802B0704746
:100B000041F21800C4F20200416841F00101416065
:100B1000406800F001000090009802B070470000AB
:100B200090F83D1001291CBF01207047022180F878
:100B30003D10006840F2FF71C4F20001884205DCFC
:100B4000B0F1804F0ED040F2004107E042F6004184
:100B5000C4F20101884205D040F60001C4F2000150
:100B6000884206D1816801F00701062904BF0020F0
:100B70007047016841F001010160002070470000EA
:100B80000146006841F21113026A1A4208D1026A52
:100B900040F244431A4203D1026822F0010202608B
:100BA0000122002081F83D207047000010B5044666
:100BB00090F83C0001284FF0020008BF10BD012250
:100BC00084F83C2084F83D0020684FF677738268F3
:100BD0009A4382600A683F2A14DD5F2A18DD602A82
:100BE00028D0B2F5005F2DD0702A40D1D1E9012C78
:100BF000CB68614600F0E6FA2068816841F0770131
:100C0000816034E01F2A0FDC92B1102A10D02EE050
:100C1000402A23D0502A2AD14B68CA68194600F0CE
:100C2000A3FB2068502120E0202A01D0302A1ED1C9
:100C300011461AE04B68CA68194600F0A7FB206805
:100C4000602112E0D1E9012CCB68614600F0BAFACC
:100C50002068816841F48041816008E04B68CA687F
:100C6000194600F081FB2068402100F0B7FA01200E
:100C700084F83D00002084F83C0010BD80B586B0AB
:100C8000014640F60000C4F20100096800F5105268
:100C900091424FF00001CDE90411CDE9021101D0DC
:100CA00006B080BD41F21801C4F202010A6842F0A8
:100CB00004020A60096801F00401019101994FF4EE
:100CC0004071029102210391059102A9FFF752FAA6
:100CD00006B080BDB0B5044690F83C00012804BFC2
:100CE0000220B0BD4FEAB2000D460121032884F86E
:100CF0003C1036D8DFE800F0020A122220682946AC
:100D000000F074FA206850F8181F0EE02068294699
:100D100000F09CFA206850F8181F16E02068294659
:100D200000F0C8FA206850F81C1F41F0080101606B
:100D3000016821F00401016029690FE0206829465B
:100D400000F0ECFA206850F81C1F41F400610160CB
:100D5000016821F480610160296909020268114378
:100D60000160002084F83C00B0BD0000002804BFF2
:100D70000120704710B5044690F83D0028B90020C6
:100D800084F83C00204600F01FF8022084F83D0063
:100D90002068211D00F0BEF9012084F8460084F887
:100DA0003E0084F83F0084F8400084F8410084F855
:100DB000420084F8430084F8440084F8450084F835
:100DC0003D00002010BD000070470000B0B5044693
:100DD00041B1082909D0042914BF04F1410004F1EC
:100DE0003F0004E004F13E0001E004F1400000781F
:100DF00001281CBF0120B0BD022041B1082909D043
:100E0000042914BF84F8410084F83F0004E084F80A
:100E10003E0001E084F84000206842F6444501228B
:100E2000C4F2010500F0BCF92068A5F14401884234
:100E300003D1296841F40041296040F2FF71C4F2F6
:100E40000001884205DCB0F1804F0ED040F2004135
:100E500007E042F60041C4F20101884205D040F6A5
:100E60000001C4F20001884206D1816801F0070147
:100E7000062904BF0020B0BD016841F001010160F6
:100E80000020B0BDFEE70000F0B585B0002641F2BD
:100E90001800CDE90366CDE90166C4F202000168DD
:100EA00041F2000441F0100101600168C4F2010444
:100EB00001F01001009100990168002241F0040145
:100EC000016000684FF4C04100F0040000900098F9
:100ED00020464FF4C045FFF767FA0195012702202D
:100EE00001ADCDE90276049020462946FFF742F98C
:100EF000032001A9C1C1A4F500602946FFF73AF912
:100F000005B0F0BD70B596B040F2280442F600403E
:100F1000C2F20004C4F2010000263F2140F2CF7269
:100F200084E8430020461596CDE91366CDE91166A5
:100F3000CDE90F66CDE90D66CDE90B66CDE9096611
:100F4000CDE90766CDE90566CDE90366CDE9016621
:100F5000C4E90326C4E90566FFF78AFD4FF4805013
:100F6000129012A92046FFF721FE2046FFF7FEFE51
:100F700010A92046CDE91066FFF73EFD602009ADBF
:100F8000CDE90906204629460022CDE90B66CDE9C8
:100F90000D660F96FFF79EFE204629460422FFF7B6
:100FA00099FE4FF40050CDE90166CDE90366069045
:100FB00001A9204605960896FFF7F8FC2046FFF7A2
:100FC0005DFE16B070BD0000B0B586B040F2700492
:100FD000C2F200044FF0804000253F214FF6FF721F
:100FE00084E823002046CDE90455CDE90255CDE93A
:100FF0000055C4E90325A561FFF73AFD4FF4805081
:10100000029002A92046FFF7D1FD69462046CDE9AE
:101010000055FFF7F1FC06B0B0BD0000FEE7000090
:101020007047000000F0070080F00703042B28BF82
:1010300004234FF0FF3C03380CFA03F338BF0020C1
:10104000994381400CFA00F022EA000008437047FF
:101050007047000081B040F20000C2F2000000685A
:1010600044F6D351C1F26201A0FB0101480A00908D
:1010700000BF0098411E00280091F9D101B07047CF
:1010800070470000B0B501380024B4EB106F1CBFEE
:101090000120B0BD4EF21005CEF2000568604FF0A1
:1010A000FF300F2100F08EF90720AC602860204649
:1010B000B0BD000080B5FFF783F980BD70B590B07A
:1010C00006AC20462821FFF734F801200A901020B2
:1010D000002502260B904FF460100696CDE90D65B1
:1010E0000F9020460595CDE90355CDE90155FFF751
:1010F000CFFA0F20CDE901064FF480600395CDE9CA
:10110000040501A80221FFF7DBF910B070BD000053
:101110007047000010B540F2FF7E0368C4F2000E75
:1011200042F6004C7045C4F2010C05DCB0F1804F72
:101130000AD040F2004203E0604505D040F60002CC
:10114000C4F20002904203D14A6823F070031343B3
:10115000704505DCB0F1804F0AD040F2004203E058
:10116000604505D040F60002C4F20002904203D16F
:10117000CA6823F44073134323F080024B69D1F80B
:1011800000E08C681A4360450260C462C0F828E041
:1011900002D10969CCF830100121416110BD000075
:1011A00080B501F01F014FF0010CD0F820E00CFADF
:1011B00001F32EEA03030362036A02FA01F1194301
:1011C000016280BDD0F808C011432CF47F4C41EA85
:1011D000032141EA0C01816070470000826822F01F
:1011E0007002114341F007018160704770B5026AD7
:1011F00042F6004E22F001020262026A45688369EB
:101200000C688E6823F0730322F00202C4F2010E10
:1012100043EA040C704542EA060208D070450ED03D
:101220004560C0F818C049684163026270BDCB6870
:1012300022F00C0223F004031A437045F0D125F488
:101240004073D1E9056533431D43E9E770B5026A90
:1012500042F6004E22F010020262026A456883697B
:101260000C688E6823F4E64322F02002C4F2010EDB
:1012700043EA042C704542EA061208D0704510D0AB
:101280004560C0F818C049688163026270BDCB68D0
:101290006FF0400422F0C00204EA03131A437045C1
:1012A000EED125F44063D1E9056543EA860343EABC
:1012B0008505E5E770B5026A42F6004E22F48072B9
:1012C0000262026A4568C3690C688E6823F0730382
:1012D00022F40072C4F2010E43EA040C704542EAA3
:1012E000062208D0704510D04560C0F81CC049687F
:1012F000C163026270BDCB6840F2FF441B0222F45E
:101300004062A3431A437045EED125F44053D1E91E
:10131000056543EA061343EA0515E5E7B0B5026A39
:1013200022F480520262046AD0F804E0C2690B68B9
:1013300022F4E6428D6842EA032C42F6004324F48C
:101340000052C4F20103984242EA053304D14A69CB
:101350002EF4804545EA821EC0F804E0C0F81CC0A7
:10136000496801640362B0BDD0F820C0036A23F06D
:1013700001030362836923F0F00343EA02122CF0B5
:101380000A0319438261016270470000036A23F077
:10139000100303628369D0F820C023F4704343EA4A
:1013A00002322CF0A00343EA01118261016270470E
:1013B000FEE700004EF60C50CEF200000068C0F3CD
:1013C000022070474EF6145300F00F02CEF20003D5
:1013D00009011A4400F16043B0F1FF3FC8BF03F5B3
:1013E00064421170704700004EF60C51CEF20001BD
:1013F0000A684FF6FF031A4060F30A2242F0806049
:1014000040F0FD700860704740F60002C4F201022F
:10141000904208BF012900D0704740F2B800C2F2E4
:101420000000017829B1012918BF7047002101701F
:10143000704701210170704710B504460069A18A08
:10144000FEF7A4FFA178884205D0A0700120E070CB
:10145000FEF7B0FF6060E07868B1FEF7ABFF40F2E6
:10146000C001C2F200010968401A0F2803D3A07816
:1014700020700020E07020786178884208BF10BD9D
:1014800040B92069A18A01222273FFF7BDFFFEF750
:1014900091FFA0602078607010BD00000161828221
:1014A0007047000010B5002808BF10BD044600BFFB
:1014B0004FF47A7000F004F8013CF9D110BD00003F
:1014C000B0B540F27005C2F200050446286800215C
:1014D00041622846FFF724FB286800BF416AA14209
:1014E000FCD340F27000C2F20000FFF749FBB0BD30
:1014F00080B540F2B800C2F200000078012805D0A3
:10150000002818BF80BD00F027F880BD00F002F869
:1015100080BD000010B541F20000C4F201004FF49C
:1015200080410022FEF740FF40F2040440F228010F
:10153000C2F20004C2F20001206809684863013861
:1015400020600220FFF7AEFF2068002804BF40F2B1
:10155000CF70206010BD000010B540F22800C2F22C
:101560000000006800214163FEF724FF40F2BC0444
:10157000C2F200042168401AB0F5967F38BF10BD52
:1015800041F20000C4F201004FF48041FEF704FF75
:10159000FEF710FF206010BDFEF720FFFFF78EFD65
:1015A000FFF772FCFFF7AEFCFFF70EFD40F21004F0
:1015B000C2F2000440F60001C4F2010120460122FB
:1015C000FFF76CFF40F22800C2F200000021FFF795
:1015D000FDFB00BF2046FFF72FFFFFF789FFF9E76C
:1015E00002E008C8121F08C1002AFAD170477047EC
:1015F000002001E001C1121F002AFBD1704700004A
:1016000000000000000001020304060708090000B2
:10161000301600080000002010000000E01500084F
:101620004016000810000020B8040000F015000863
:101630000024F400CF0700000100000010000000AB
:04000005080000ED02
:00000001FF
